{
  "_format": "hh-sol-artifact-1",
  "contractName": "ContratoSeguro",
  "sourceName": "contracts/ContratoSeguro.sol",
  "abi": [
    {
      "inputs": [
        {
          "internalType": "string",
          "name": "_compania",
          "type": "string"
        }
      ],
      "stateMutability": "nonpayable",
      "type": "constructor"
    },
    {
      "anonymous": false,
      "inputs": [
        {
          "indexed": true,
          "internalType": "uint256",
          "name": "IdContrato",
          "type": "uint256"
        },
        {
          "indexed": false,
          "internalType": "address",
          "name": "asegurado",
          "type": "address"
        },
        {
          "indexed": false,
          "internalType": "uint256",
          "name": "prima",
          "type": "uint256"
        },
        {
          "indexed": false,
          "internalType": "uint256",
          "name": "MontoCobertura",
          "type": "uint256"
        },
        {
          "indexed": false,
          "internalType": "uint256",
          "name": "InicioFecha",
          "type": "uint256"
        },
        {
          "indexed": false,
          "internalType": "uint256",
          "name": "FinFecha",
          "type": "uint256"
        }
      ],
      "name": "CreacionContrato",
      "type": "event"
    },
    {
      "anonymous": false,
      "inputs": [
        {
          "indexed": true,
          "internalType": "address",
          "name": "previousOwner",
          "type": "address"
        },
        {
          "indexed": true,
          "internalType": "address",
          "name": "newOwner",
          "type": "address"
        }
      ],
      "name": "OwnershipTransferred",
      "type": "event"
    },
    {
      "anonymous": false,
      "inputs": [
        {
          "indexed": true,
          "internalType": "uint256",
          "name": "IdContrato",
          "type": "uint256"
        }
      ],
      "name": "ReclamoContrato",
      "type": "event"
    },
    {
      "inputs": [
        {
          "internalType": "uint256",
          "name": "_IdContrato",
          "type": "uint256"
        }
      ],
      "name": "PresentarReclamo",
      "outputs": [],
      "stateMutability": "nonpayable",
      "type": "function"
    },
    {
      "inputs": [],
      "name": "compania",
      "outputs": [
        {
          "internalType": "string",
          "name": "",
          "type": "string"
        }
      ],
      "stateMutability": "view",
      "type": "function"
    },
    {
      "inputs": [
        {
          "internalType": "address",
          "name": "_asegurado",
          "type": "address"
        },
        {
          "internalType": "uint256",
          "name": "_prima",
          "type": "uint256"
        },
        {
          "internalType": "uint256",
          "name": "_MontoCobertura",
          "type": "uint256"
        },
        {
          "internalType": "uint256",
          "name": "_Duracion",
          "type": "uint256"
        }
      ],
      "name": "crearContrato",
      "outputs": [],
      "stateMutability": "nonpayable",
      "type": "function"
    },
    {
      "inputs": [],
      "name": "owner",
      "outputs": [
        {
          "internalType": "address",
          "name": "",
          "type": "address"
        }
      ],
      "stateMutability": "view",
      "type": "function"
    },
    {
      "inputs": [],
      "name": "renounceOwnership",
      "outputs": [],
      "stateMutability": "nonpayable",
      "type": "function"
    },
    {
      "inputs": [
        {
          "internalType": "uint256",
          "name": "",
          "type": "uint256"
        }
      ],
      "name": "seguroauto",
      "outputs": [
        {
          "internalType": "address",
          "name": "asegurado",
          "type": "address"
        },
        {
          "internalType": "uint256",
          "name": "prima",
          "type": "uint256"
        },
        {
          "internalType": "uint256",
          "name": "MontoCobertura",
          "type": "uint256"
        },
        {
          "internalType": "uint256",
          "name": "InicioFecha",
          "type": "uint256"
        },
        {
          "internalType": "uint256",
          "name": "FinFecha",
          "type": "uint256"
        },
        {
          "internalType": "bool",
          "name": "Activo",
          "type": "bool"
        },
        {
          "internalType": "bool",
          "name": "Reclamado",
          "type": "bool"
        }
      ],
      "stateMutability": "view",
      "type": "function"
    },
    {
      "inputs": [
        {
          "internalType": "address",
          "name": "newOwner",
          "type": "address"
        }
      ],
      "name": "transferOwnership",
      "outputs": [],
      "stateMutability": "nonpayable",
      "type": "function"
    }
  ],
  "bytecode": "0x60806040523480156200001157600080fd5b50604051620013903803806200139083398181016040528101906200003791906200026c565b620000576200004b6200007e60201b60201c565b6200008660201b60201c565b600180819055508060039080519060200190620000769291906200014a565b5050620003e2565b600033905090565b60008060009054906101000a900473ffffffffffffffffffffffffffffffffffffffff169050816000806101000a81548173ffffffffffffffffffffffffffffffffffffffff021916908373ffffffffffffffffffffffffffffffffffffffff1602179055508173ffffffffffffffffffffffffffffffffffffffff168173ffffffffffffffffffffffffffffffffffffffff167f8be0079c531659141344cd1fd0a4f28419497f9722a3daafe3b4186f6b6457e060405160405180910390a35050565b82805462000158906200034e565b90600052602060002090601f0160209004810192826200017c5760008555620001c8565b82601f106200019757805160ff1916838001178555620001c8565b82800160010185558215620001c8579182015b82811115620001c7578251825591602001919060010190620001aa565b5b509050620001d79190620001db565b5090565b5b80821115620001f6576000816000905550600101620001dc565b5090565b6000620002116200020b84620002e5565b620002b1565b9050828152602081018484840111156200022a57600080fd5b6200023784828562000318565b509392505050565b600082601f8301126200025157600080fd5b815162000263848260208601620001fa565b91505092915050565b6000602082840312156200027f57600080fd5b600082015167ffffffffffffffff8111156200029a57600080fd5b620002a8848285016200023f565b91505092915050565b6000604051905081810181811067ffffffffffffffff82111715620002db57620002da620003b3565b5b8060405250919050565b600067ffffffffffffffff821115620003035762000302620003b3565b5b601f19601f8301169050602081019050919050565b60005b83811015620003385780820151818401526020810190506200031b565b8381111562000348576000848401525b50505050565b600060028204905060018216806200036757607f821691505b602082108114156200037e576200037d62000384565b5b50919050565b7f4e487b7100000000000000000000000000000000000000000000000000000000600052602260045260246000fd5b7f4e487b7100000000000000000000000000000000000000000000000000000000600052604160045260246000fd5b610f9e80620003f26000396000f3fe608060405234801561001057600080fd5b506004361061007d5760003560e01c8063715018a61161005b578063715018a6146100f05780638da5cb5b146100fa578063b2177e6614610118578063f2fde38b146101365761007d565b80630189991c146100825780630d436181146100b857806340106657146100d4575b600080fd5b61009c60048036038101906100979190610912565b610152565b6040516100af9796959493929190610c01565b60405180910390f35b6100d260048036038101906100cd91906108af565b6101ce565b005b6100ee60048036038101906100e99190610912565b61037e565b005b6100f8610546565b005b61010261055a565b60405161010f9190610b93565b60405180910390f35b610120610583565b60405161012d9190610c70565b60405180910390f35b610150600480360381019061014b9190610886565b610611565b005b60046020528060005260406000206000915090508060000160009054906101000a900473ffffffffffffffffffffffffffffffffffffffff16908060010154908060020154908060030154908060040154908060050160009054906101000a900460ff16908060050160019054906101000a900460ff16905087565b6101d6610695565b6101de610713565b60006101ea6002610763565b90506000429050600062015180846102029190610dc4565b8261020d9190610d6e565b90506040518060e001604052808873ffffffffffffffffffffffffffffffffffffffff168152602001878152602001868152602001838152602001828152602001600115158152602001600015158152506004600085815260200190815260200160002060008201518160000160006101000a81548173ffffffffffffffffffffffffffffffffffffffff021916908373ffffffffffffffffffffffffffffffffffffffff1602179055506020820151816001015560408201518160020155606082015181600301556080820151816004015560a08201518160050160006101000a81548160ff02191690831515021790555060c08201518160050160016101000a81548160ff02191690831515021790555090505061032d6002610771565b827f3223df17f3c73d76d0dacfd0d040e9cb1a19715a36ca6f046bfdb1bfe61f7e0a8888888686604051610365959493929190610bae565b60405180910390a2505050610378610787565b50505050565b610386610713565b60006004600083815260200190815260200160002090508060050160009054906101000a900460ff166103ee576040517f08c379a00000000000000000000000000000000000000000000000000000000081526004016103e590610d12565b60405180910390fd5b8060000160009054906101000a900473ffffffffffffffffffffffffffffffffffffffff1673ffffffffffffffffffffffffffffffffffffffff163373ffffffffffffffffffffffffffffffffffffffff1614610480576040517f08c379a000000000000000000000000000000000000000000000000000000000815260040161047790610cb2565b60405180910390fd5b8060050160019054906101000a900460ff16156104d2576040517f08c379a00000000000000000000000000000000000000000000000000000000081526004016104c990610cd2565b60405180910390fd5b3373ffffffffffffffffffffffffffffffffffffffff166108fc82600201549081150290604051600060405180830381858888f1935050505015801561051c573d6000803e3d6000fd5b5060018160050160016101000a81548160ff02191690831515021790555050610543610787565b50565b61054e610695565b6105586000610790565b565b60008060009054906101000a900473ffffffffffffffffffffffffffffffffffffffff16905090565b6003805461059090610e99565b80601f01602080910402602001604051908101604052809291908181526020018280546105bc90610e99565b80156106095780601f106105de57610100808354040283529160200191610609565b820191906000526020600020905b8154815290600101906020018083116105ec57829003601f168201915b505050505081565b610619610695565b600073ffffffffffffffffffffffffffffffffffffffff168173ffffffffffffffffffffffffffffffffffffffff161415610689576040517f08c379a000000000000000000000000000000000000000000000000000000000815260040161068090610c92565b60405180910390fd5b61069281610790565b50565b61069d610854565b73ffffffffffffffffffffffffffffffffffffffff166106bb61055a565b73ffffffffffffffffffffffffffffffffffffffff1614610711576040517f08c379a000000000000000000000000000000000000000000000000000000000815260040161070890610cf2565b60405180910390fd5b565b60026001541415610759576040517f08c379a000000000000000000000000000000000000000000000000000000000815260040161075090610d32565b60405180910390fd5b6002600181905550565b600081600001549050919050565b6001816000016000828254019250508190555050565b60018081905550565b60008060009054906101000a900473ffffffffffffffffffffffffffffffffffffffff169050816000806101000a81548173ffffffffffffffffffffffffffffffffffffffff021916908373ffffffffffffffffffffffffffffffffffffffff1602179055508173ffffffffffffffffffffffffffffffffffffffff168173ffffffffffffffffffffffffffffffffffffffff167f8be0079c531659141344cd1fd0a4f28419497f9722a3daafe3b4186f6b6457e060405160405180910390a35050565b600033905090565b60008135905061086b81610f3a565b92915050565b60008135905061088081610f51565b92915050565b60006020828403121561089857600080fd5b60006108a68482850161085c565b91505092915050565b600080600080608085870312156108c557600080fd5b60006108d38782880161085c565b94505060206108e487828801610871565b93505060406108f587828801610871565b925050606061090687828801610871565b91505092959194509250565b60006020828403121561092457600080fd5b600061093284828501610871565b91505092915050565b61094481610e1e565b82525050565b61095381610e30565b82525050565b600061096482610d52565b61096e8185610d5d565b935061097e818560208601610e66565b61098781610f29565b840191505092915050565b600061099f602683610d5d565b91507f4f776e61626c653a206e6577206f776e657220697320746865207a65726f206160008301527f64647265737300000000000000000000000000000000000000000000000000006020830152604082019050919050565b6000610a05602c83610d5d565b91507f536f6c6f20656c2061736567757261646f2070756564652070726573656e746160008301527f7220756e207265636c616d6f00000000000000000000000000000000000000006020830152604082019050919050565b6000610a6b601d83610d5d565b91507f456c207265636c616d6f207961207365206861207265616c697a61646f0000006000830152602082019050919050565b6000610aab602083610d5d565b91507f4f776e61626c653a2063616c6c6572206973206e6f7420746865206f776e65726000830152602082019050919050565b6000610aeb602483610d5d565b91507f456c20636f6e747261746f2064652073656775726f206e6f206573746120616360008301527f7469766f000000000000000000000000000000000000000000000000000000006020830152604082019050919050565b6000610b51601f83610d5d565b91507f5265656e7472616e637947756172643a207265656e7472616e742063616c6c006000830152602082019050919050565b610b8d81610e5c565b82525050565b6000602082019050610ba8600083018461093b565b92915050565b600060a082019050610bc3600083018861093b565b610bd06020830187610b84565b610bdd6040830186610b84565b610bea6060830185610b84565b610bf76080830184610b84565b9695505050505050565b600060e082019050610c16600083018a61093b565b610c236020830189610b84565b610c306040830188610b84565b610c3d6060830187610b84565b610c4a6080830186610b84565b610c5760a083018561094a565b610c6460c083018461094a565b98975050505050505050565b60006020820190508181036000830152610c8a8184610959565b905092915050565b60006020820190508181036000830152610cab81610992565b9050919050565b60006020820190508181036000830152610ccb816109f8565b9050919050565b60006020820190508181036000830152610ceb81610a5e565b9050919050565b60006020820190508181036000830152610d0b81610a9e565b9050919050565b60006020820190508181036000830152610d2b81610ade565b9050919050565b60006020820190508181036000830152610d4b81610b44565b9050919050565b600081519050919050565b600082825260208201905092915050565b6000610d7982610e5c565b9150610d8483610e5c565b9250827fffffffffffffffffffffffffffffffffffffffffffffffffffffffffffffffff03821115610db957610db8610ecb565b5b828201905092915050565b6000610dcf82610e5c565b9150610dda83610e5c565b9250817fffffffffffffffffffffffffffffffffffffffffffffffffffffffffffffffff0483118215151615610e1357610e12610ecb565b5b828202905092915050565b6000610e2982610e3c565b9050919050565b60008115159050919050565b600073ffffffffffffffffffffffffffffffffffffffff82169050919050565b6000819050919050565b60005b83811015610e84578082015181840152602081019050610e69565b83811115610e93576000848401525b50505050565b60006002820490506001821680610eb157607f821691505b60208210811415610ec557610ec4610efa565b5b50919050565b7f4e487b7100000000000000000000000000000000000000000000000000000000600052601160045260246000fd5b7f4e487b7100000000000000000000000000000000000000000000000000000000600052602260045260246000fd5b6000601f19601f8301169050919050565b610f4381610e1e565b8114610f4e57600080fd5b50565b610f5a81610e5c565b8114610f6557600080fd5b5056fea264697066735822122075c0f78c2df290fdbfb9639f8120a433c58bedf274fa416d3313af9bf36929e764736f6c63430008000033",
  "linkReferences": {},
  "deployedLinkReferences": {}
}